{
  "_format": "hh-sol-artifact-1",
  "contractName": "Lottery",
  "sourceName": "contracts/lottery.sol",
  "abi": [
    {
      "inputs": [
        {
          "internalType": "string",
          "name": "_title",
          "type": "string"
        },
        {
          "internalType": "uint256",
          "name": "winPercent",
          "type": "uint256"
        },
        {
          "internalType": "uint256",
          "name": "_ticketPrice",
          "type": "uint256"
        },
        {
          "internalType": "uint256",
          "name": "blockDuration",
          "type": "uint256"
        },
        {
          "internalType": "uint256[]",
          "name": "_rewardParts",
          "type": "uint256[]"
        }
      ],
      "stateMutability": "nonpayable",
      "type": "constructor"
    },
    {
      "inputs": [
        {
          "internalType": "address",
          "name": "player",
          "type": "address"
        }
      ],
      "name": "checkRegistration",
      "outputs": [
        {
          "internalType": "bool",
          "name": "",
          "type": "bool"
        }
      ],
      "stateMutability": "view",
      "type": "function"
    },
    {
      "inputs": [],
      "name": "currentLotteryID",
      "outputs": [
        {
          "internalType": "uint256",
          "name": "",
          "type": "uint256"
        }
      ],
      "stateMutability": "view",
      "type": "function"
    },
    {
      "inputs": [
        {
          "internalType": "uint256",
          "name": "",
          "type": "uint256"
        }
      ],
      "name": "currentPlayerList",
      "outputs": [
        {
          "internalType": "address",
          "name": "",
          "type": "address"
        }
      ],
      "stateMutability": "view",
      "type": "function"
    },
    {
      "inputs": [
        {
          "internalType": "uint256",
          "name": "",
          "type": "uint256"
        }
      ],
      "name": "currentWinnerList",
      "outputs": [
        {
          "internalType": "address",
          "name": "",
          "type": "address"
        }
      ],
      "stateMutability": "view",
      "type": "function"
    },
    {
      "inputs": [],
      "name": "duration",
      "outputs": [
        {
          "internalType": "uint256",
          "name": "",
          "type": "uint256"
        }
      ],
      "stateMutability": "view",
      "type": "function"
    },
    {
      "inputs": [],
      "name": "finishLottery",
      "outputs": [],
      "stateMutability": "nonpayable",
      "type": "function"
    },
    {
      "inputs": [],
      "name": "getCurrentLotteryID",
      "outputs": [
        {
          "internalType": "uint256",
          "name": "",
          "type": "uint256"
        }
      ],
      "stateMutability": "view",
      "type": "function"
    },
    {
      "inputs": [],
      "name": "getCurrentPlayerList",
      "outputs": [
        {
          "internalType": "address[]",
          "name": "",
          "type": "address[]"
        }
      ],
      "stateMutability": "view",
      "type": "function"
    },
    {
      "inputs": [],
      "name": "getCurrentWinnerList",
      "outputs": [
        {
          "internalType": "address[]",
          "name": "",
          "type": "address[]"
        }
      ],
      "stateMutability": "view",
      "type": "function"
    },
    {
      "inputs": [
        {
          "internalType": "uint256",
          "name": "lotteryID",
          "type": "uint256"
        }
      ],
      "name": "getPlayerCounterByLottery",
      "outputs": [
        {
          "internalType": "uint256",
          "name": "",
          "type": "uint256"
        }
      ],
      "stateMutability": "view",
      "type": "function"
    },
    {
      "inputs": [
        {
          "internalType": "uint256",
          "name": "lotteryID",
          "type": "uint256"
        }
      ],
      "name": "getPrizePoolByLottery",
      "outputs": [
        {
          "internalType": "uint256",
          "name": "",
          "type": "uint256"
        }
      ],
      "stateMutability": "view",
      "type": "function"
    },
    {
      "inputs": [
        {
          "internalType": "uint256",
          "name": "lotteryID",
          "type": "uint256"
        }
      ],
      "name": "getStartBlockByID",
      "outputs": [
        {
          "internalType": "uint256",
          "name": "",
          "type": "uint256"
        }
      ],
      "stateMutability": "view",
      "type": "function"
    },
    {
      "inputs": [],
      "name": "lotteryTitle",
      "outputs": [
        {
          "internalType": "string",
          "name": "",
          "type": "string"
        }
      ],
      "stateMutability": "view",
      "type": "function"
    },
    {
      "inputs": [],
      "name": "manager",
      "outputs": [
        {
          "internalType": "address",
          "name": "",
          "type": "address"
        }
      ],
      "stateMutability": "view",
      "type": "function"
    },
    {
      "inputs": [],
      "name": "multiplier",
      "outputs": [
        {
          "internalType": "uint256",
          "name": "",
          "type": "uint256"
        }
      ],
      "stateMutability": "view",
      "type": "function"
    },
    {
      "inputs": [],
      "name": "owner",
      "outputs": [
        {
          "internalType": "address",
          "name": "",
          "type": "address"
        }
      ],
      "stateMutability": "view",
      "type": "function"
    },
    {
      "inputs": [],
      "name": "percentageOfWinners",
      "outputs": [
        {
          "internalType": "uint256",
          "name": "",
          "type": "uint256"
        }
      ],
      "stateMutability": "view",
      "type": "function"
    },
    {
      "inputs": [
        {
          "internalType": "uint256",
          "name": "",
          "type": "uint256"
        },
        {
          "internalType": "uint256",
          "name": "",
          "type": "uint256"
        }
      ],
      "name": "playerList",
      "outputs": [
        {
          "internalType": "address",
          "name": "",
          "type": "address"
        }
      ],
      "stateMutability": "view",
      "type": "function"
    },
    {
      "inputs": [],
      "name": "prizePool",
      "outputs": [
        {
          "internalType": "uint256",
          "name": "",
          "type": "uint256"
        }
      ],
      "stateMutability": "view",
      "type": "function"
    },
    {
      "inputs": [
        {
          "internalType": "uint256",
          "name": "",
          "type": "uint256"
        }
      ],
      "name": "prizePools",
      "outputs": [
        {
          "internalType": "uint256",
          "name": "",
          "type": "uint256"
        }
      ],
      "stateMutability": "view",
      "type": "function"
    },
    {
      "inputs": [
        {
          "internalType": "address",
          "name": "player",
          "type": "address"
        }
      ],
      "name": "pushNewPlayer",
      "outputs": [],
      "stateMutability": "nonpayable",
      "type": "function"
    },
    {
      "inputs": [
        {
          "internalType": "uint256",
          "name": "",
          "type": "uint256"
        },
        {
          "internalType": "address",
          "name": "",
          "type": "address"
        }
      ],
      "name": "registeredPlayers",
      "outputs": [
        {
          "internalType": "bool",
          "name": "",
          "type": "bool"
        }
      ],
      "stateMutability": "view",
      "type": "function"
    },
    {
      "inputs": [
        {
          "internalType": "uint256",
          "name": "",
          "type": "uint256"
        }
      ],
      "name": "rewardParts",
      "outputs": [
        {
          "internalType": "uint256",
          "name": "",
          "type": "uint256"
        }
      ],
      "stateMutability": "view",
      "type": "function"
    },
    {
      "inputs": [
        {
          "internalType": "uint256",
          "name": "blockLen",
          "type": "uint256"
        }
      ],
      "name": "setDuration",
      "outputs": [],
      "stateMutability": "nonpayable",
      "type": "function"
    },
    {
      "inputs": [
        {
          "internalType": "address",
          "name": "newAddress",
          "type": "address"
        }
      ],
      "name": "setManagerAddress",
      "outputs": [],
      "stateMutability": "nonpayable",
      "type": "function"
    },
    {
      "inputs": [
        {
          "internalType": "uint256",
          "name": "price",
          "type": "uint256"
        }
      ],
      "name": "setTicketPrice",
      "outputs": [],
      "stateMutability": "nonpayable",
      "type": "function"
    },
    {
      "inputs": [],
      "name": "spawnNewLottery",
      "outputs": [],
      "stateMutability": "nonpayable",
      "type": "function"
    },
    {
      "inputs": [
        {
          "internalType": "uint256",
          "name": "",
          "type": "uint256"
        }
      ],
      "name": "startBlocks",
      "outputs": [
        {
          "internalType": "uint256",
          "name": "",
          "type": "uint256"
        }
      ],
      "stateMutability": "view",
      "type": "function"
    },
    {
      "inputs": [],
      "name": "ticketPrice",
      "outputs": [
        {
          "internalType": "uint256",
          "name": "",
          "type": "uint256"
        }
      ],
      "stateMutability": "view",
      "type": "function"
    },
    {
      "inputs": [],
      "name": "transferable",
      "outputs": [
        {
          "internalType": "bool",
          "name": "",
          "type": "bool"
        }
      ],
      "stateMutability": "view",
      "type": "function"
    },
    {
      "inputs": [
        {
          "internalType": "uint256",
          "name": "",
          "type": "uint256"
        },
        {
          "internalType": "address",
          "name": "",
          "type": "address"
        }
      ],
      "name": "winnings",
      "outputs": [
        {
          "internalType": "uint256",
          "name": "",
          "type": "uint256"
        }
      ],
      "stateMutability": "view",
      "type": "function"
    },
    {
      "inputs": [],
      "name": "wipeCurrentLotteryData",
      "outputs": [],
      "stateMutability": "nonpayable",
      "type": "function"
    }
  ],
  "bytecode": "0x608060405260008060006101000a81548160ff021916908315150217905550600060015560326002556127106003556040518060400160405280604660ff168152602001601e60ff1681525060049060026200005d92919062000133565b5060006005556032600655678ac7230489e800006007553480156200008157600080fd5b506040516200275b3803806200275b8339818101604052810190620000a79190620004a4565b84600f9081620000b89190620007ab565b508360028190555082600781905550816006819055508060049080519060200190620000e69291906200018a565b5033601160006101000a81548173ffffffffffffffffffffffffffffffffffffffff021916908373ffffffffffffffffffffffffffffffffffffffff160217905550505050505062000892565b82805482825590600052602060002090810192821562000177579160200282015b8281111562000176578251829060ff1690559160200191906001019062000154565b5b509050620001869190620001dc565b5090565b828054828255906000526020600020908101928215620001c9579160200282015b82811115620001c8578251825591602001919060010190620001ab565b5b509050620001d89190620001dc565b5090565b5b80821115620001f7576000816000905550600101620001dd565b5090565b6000604051905090565b600080fd5b600080fd5b600080fd5b600080fd5b6000601f19601f8301169050919050565b7f4e487b7100000000000000000000000000000000000000000000000000000000600052604160045260246000fd5b620002648262000219565b810181811067ffffffffffffffff821117156200028657620002856200022a565b5b80604052505050565b60006200029b620001fb565b9050620002a9828262000259565b919050565b600067ffffffffffffffff821115620002cc57620002cb6200022a565b5b620002d78262000219565b9050602081019050919050565b60005b8381101562000304578082015181840152602081019050620002e7565b60008484015250505050565b6000620003276200032184620002ae565b6200028f565b90508281526020810184848401111562000346576200034562000214565b5b62000353848285620002e4565b509392505050565b600082601f8301126200037357620003726200020f565b5b81516200038584826020860162000310565b91505092915050565b6000819050919050565b620003a3816200038e565b8114620003af57600080fd5b50565b600081519050620003c38162000398565b92915050565b600067ffffffffffffffff821115620003e757620003e66200022a565b5b602082029050602081019050919050565b600080fd5b6000620004146200040e84620003c9565b6200028f565b905080838252602082019050602084028301858111156200043a5762000439620003f8565b5b835b81811015620004675780620004528882620003b2565b8452602084019350506020810190506200043c565b5050509392505050565b600082601f8301126200048957620004886200020f565b5b81516200049b848260208601620003fd565b91505092915050565b600080600080600060a08688031215620004c357620004c262000205565b5b600086015167ffffffffffffffff811115620004e457620004e36200020a565b5b620004f2888289016200035b565b95505060206200050588828901620003b2565b94505060406200051888828901620003b2565b93505060606200052b88828901620003b2565b925050608086015167ffffffffffffffff8111156200054f576200054e6200020a565b5b6200055d8882890162000471565b9150509295509295909350565b600081519050919050565b7f4e487b7100000000000000000000000000000000000000000000000000000000600052602260045260246000fd5b60006002820490506001821680620005bd57607f821691505b602082108103620005d357620005d262000575565b5b50919050565b60008190508160005260206000209050919050565b60006020601f8301049050919050565b600082821b905092915050565b6000600883026200063d7fffffffffffffffffffffffffffffffffffffffffffffffffffffffffffffffff82620005fe565b620006498683620005fe565b95508019841693508086168417925050509392505050565b6000819050919050565b60006200068c6200068662000680846200038e565b62000661565b6200038e565b9050919050565b6000819050919050565b620006a8836200066b565b620006c0620006b78262000693565b8484546200060b565b825550505050565b600090565b620006d7620006c8565b620006e48184846200069d565b505050565b5b818110156200070c5762000700600082620006cd565b600181019050620006ea565b5050565b601f8211156200075b576200072581620005d9565b6200073084620005ee565b8101602085101562000740578190505b620007586200074f85620005ee565b830182620006e9565b50505b505050565b600082821c905092915050565b6000620007806000198460080262000760565b1980831691505092915050565b60006200079b83836200076d565b9150826002028217905092915050565b620007b6826200056a565b67ffffffffffffffff811115620007d257620007d16200022a565b5b620007de8254620005a4565b620007eb82828562000710565b600060209050601f8311600181146200082357600084156200080e578287015190505b6200081a85826200078d565b8655506200088a565b601f1984166200083386620005d9565b60005b828110156200085d5784890151825560018201915060208501945060208101905062000836565b868310156200087d578489015162000879601f8916826200076d565b8355505b6001600288020188555050505b505050505050565b611eb980620008a26000396000f3fe608060405234801561001057600080fd5b50600436106101f05760003560e01c80638da5cb5b1161010f578063a6b5e705116100a2578063e2a4128311610071578063e2a412831461059d578063eddad394146105cd578063f6be71d1146105fd578063f7b2402414610619576101f0565b8063a6b5e70514610501578063b784d14e14610531578063cf2426f01461054f578063cfe4ebad1461057f576101f0565b8063a0a773c5116100de578063a0a773c514610479578063a547c6fe14610483578063a54f35e2146104b3578063a5f178e3146104d1576101f0565b80638da5cb5b14610401578063929162031461041f57806392ff0d311461043d578063984ac3781461045b576101f0565b806334f1c23011610187578063481c6a7511610156578063481c6a75146103655780636413f12914610383578063719ce73e146103b3578063864052db146103d1576101f0565b806334f1c230146102cb57806335bfc50c146102fb57806338b014ca1461032b5780634143190814610349576101f0565b806315981650116101c357806315981650146102575780631b3ed722146102735780632748cc06146102915780632c906ba2146102c1576101f0565b806307798954146101f55780630b38e19b146101ff5780630fb5a6b41461021b5780631209b1f614610239575b600080fd5b6101fd610649565b005b610219600480360381019061021491906115ac565b6106f2565b005b6102236108dc565b60405161023091906115f2565b60405180910390f35b6102416108e2565b60405161024e91906115f2565b60405180910390f35b610271600480360381019061026c9190611639565b6108e8565b005b61027b61098f565b60405161028891906115f2565b60405180910390f35b6102ab60048036038101906102a69190611666565b610995565b6040516102b891906116b5565b60405180910390f35b6102c96109e3565b005b6102e560048036038101906102e09190611639565b610c8a565b6040516102f291906116b5565b60405180910390f35b61031560048036038101906103109190611639565b610cc9565b60405161032291906116b5565b60405180910390f35b610333610d08565b60405161034091906115f2565b60405180910390f35b610363600480360381019061035e91906115ac565b610d0e565b005b61036d610dac565b60405161037a91906116b5565b60405180910390f35b61039d60048036038101906103989190611639565b610dd2565b6040516103aa91906115f2565b60405180910390f35b6103bb610def565b6040516103c891906115f2565b60405180910390f35b6103eb60048036038101906103e69190611639565b610df5565b6040516103f891906115f2565b60405180910390f35b610409610e19565b60405161041691906116b5565b60405180910390f35b610427610e3f565b604051610434919061178e565b60405180910390f35b610445610ecd565b60405161045291906117cb565b60405180910390f35b610463610ede565b6040516104709190611876565b60405180910390f35b610481610f6c565b005b61049d60048036038101906104989190611639565b610fec565b6040516104aa91906115f2565b60405180910390f35b6104bb611004565b6040516104c8919061178e565b60405180910390f35b6104eb60048036038101906104e69190611898565b611092565b6040516104f891906115f2565b60405180910390f35b61051b60048036038101906105169190611639565b6110b7565b60405161052891906115f2565b60405180910390f35b6105396110d7565b60405161054691906115f2565b60405180910390f35b61056960048036038101906105649190611639565b6110e1565b60405161057691906115f2565b60405180910390f35b6105876110fe565b60405161059491906115f2565b60405180910390f35b6105b760048036038101906105b291906115ac565b611104565b6040516105c491906117cb565b60405180910390f35b6105e760048036038101906105e29190611639565b61116d565b6040516105f491906115f2565b60405180910390f35b61061760048036038101906106129190611639565b611185565b005b610633600480360381019061062e9190611898565b61122c565b60405161064091906117cb565b60405180910390f35b601060009054906101000a900473ffffffffffffffffffffffffffffffffffffffff1673ffffffffffffffffffffffffffffffffffffffff163373ffffffffffffffffffffffffffffffffffffffff16146106a357600080fd5b600160008154809291906106b690611907565b919050555043600860006001548152602001908152602001600020819055506000600d6000600154815260200190815260200160002081905550565b601060009054906101000a900473ffffffffffffffffffffffffffffffffffffffff1673ffffffffffffffffffffffffffffffffffffffff163373ffffffffffffffffffffffffffffffffffffffff161461074c57600080fd5b6001600b6000600154815260200190815260200160002060008373ffffffffffffffffffffffffffffffffffffffff1673ffffffffffffffffffffffffffffffffffffffff16815260200190815260200160002060006101000a81548160ff0219169083151502179055506009819080600181540180825580915050600190039060005260206000200160009091909190916101000a81548173ffffffffffffffffffffffffffffffffffffffff021916908373ffffffffffffffffffffffffffffffffffffffff160217905550600e60006001548152602001908152602001600020819080600181540180825580915050600190039060005260206000200160009091909190916101000a81548173ffffffffffffffffffffffffffffffffffffffff021916908373ffffffffffffffffffffffffffffffffffffffff160217905550600754600560008282546108a4919061194f565b92505081905550600754600d6000600154815260200190815260200160002060008282546108d2919061194f565b9250508190555050565b60065481565b60075481565b601060009054906101000a900473ffffffffffffffffffffffffffffffffffffffff1673ffffffffffffffffffffffffffffffffffffffff163373ffffffffffffffffffffffffffffffffffffffff161461094257600080fd5b60008111610985576040517f08c379a000000000000000000000000000000000000000000000000000000000815260040161097c906119f5565b60405180910390fd5b8060078190555050565b60035481565b600e60205281600052604060002081815481106109b157600080fd5b906000526020600020016000915091509054906101000a900473ffffffffffffffffffffffffffffffffffffffff1681565b601060009054906101000a900473ffffffffffffffffffffffffffffffffffffffff1673ffffffffffffffffffffffffffffffffffffffff163373ffffffffffffffffffffffffffffffffffffffff1614610a3d57600080fd5b4360065460086000600154815260200190815260200160002054610a61919061194f565b1115610aa2576040517f08c379a0000000000000000000000000000000000000000000000000000000008152600401610a9990611a87565b60405180910390fd5b6000806064600254600980549050610aba9190611aa7565b610ac49190611b18565b905060008103610af65760065443610adc919061194f565b600860006001548152602001908152602001600020819055505b60008103610b39576040517f08c379a0000000000000000000000000000000000000000000000000000000008152600401610b3090611bbb565b60405180910390fd5b60005b600480549050811015610c42576000606460035460048481548110610b6457610b63611bdb565b5b9060005260206000200154610b799190611aa7565b84610b849190611aa7565b610b8e9190611b18565b90506000610b9b8261125b565b905060008103610bac575050610c2f565b6000600354606460035460048781548110610bca57610bc9611bdb565b5b9060005260206000200154610bdf9190611aa7565b610be99190611b18565b600554610bf69190611aa7565b610c009190611b18565b905060008282610c109190611b18565b9050610c1c83826112c1565b8287610c28919061194f565b9650505050505b8080610c3a90611907565b915050610b3c565b5060008203610c86576040517f08c379a0000000000000000000000000000000000000000000000000000000008152600401610c7d90611c7c565b60405180910390fd5b5050565b600a8181548110610c9a57600080fd5b906000526020600020016000915054906101000a900473ffffffffffffffffffffffffffffffffffffffff1681565b60098181548110610cd957600080fd5b906000526020600020016000915054906101000a900473ffffffffffffffffffffffffffffffffffffffff1681565b60015481565b601160009054906101000a900473ffffffffffffffffffffffffffffffffffffffff1673ffffffffffffffffffffffffffffffffffffffff163373ffffffffffffffffffffffffffffffffffffffff1614610d6857600080fd5b80601060006101000a81548173ffffffffffffffffffffffffffffffffffffffff021916908373ffffffffffffffffffffffffffffffffffffffff16021790555050565b601060009054906101000a900473ffffffffffffffffffffffffffffffffffffffff1681565b600060086000838152602001908152602001600020549050919050565b60055481565b60048181548110610e0557600080fd5b906000526020600020016000915090505481565b601160009054906101000a900473ffffffffffffffffffffffffffffffffffffffff1681565b60606009805480602002602001604051908101604052809291908181526020018280548015610ec357602002820191906000526020600020905b8160009054906101000a900473ffffffffffffffffffffffffffffffffffffffff1673ffffffffffffffffffffffffffffffffffffffff1681526020019060010190808311610e79575b5050505050905090565b60008054906101000a900460ff1681565b600f8054610eeb90611ccb565b80601f0160208091040260200160405190810160405280929190818152602001828054610f1790611ccb565b8015610f645780601f10610f3957610100808354040283529160200191610f64565b820191906000526020600020905b815481529060010190602001808311610f4757829003601f168201915b505050505081565b601060009054906101000a900473ffffffffffffffffffffffffffffffffffffffff1673ffffffffffffffffffffffffffffffffffffffff163373ffffffffffffffffffffffffffffffffffffffff1614610fc657600080fd5b60096000610fd4919061150b565b600a6000610fe2919061150b565b6000600581905550565b60086020528060005260406000206000915090505481565b6060600a80548060200260200160405190810160405280929190818152602001828054801561108857602002820191906000526020600020905b8160009054906101000a900473ffffffffffffffffffffffffffffffffffffffff1673ffffffffffffffffffffffffffffffffffffffff168152602001906001019080831161103e575b5050505050905090565b600c602052816000526040600020602052806000526040600020600091509150505481565b6000600e6000838152602001908152602001600020805490509050919050565b6000600154905090565b6000600d6000838152602001908152602001600020549050919050565b60025481565b6000600b6000600154815260200190815260200160002060008373ffffffffffffffffffffffffffffffffffffffff1673ffffffffffffffffffffffffffffffffffffffff16815260200190815260200160002060009054906101000a900460ff169050919050565b600d6020528060005260406000206000915090505481565b601060009054906101000a900473ffffffffffffffffffffffffffffffffffffffff1673ffffffffffffffffffffffffffffffffffffffff163373ffffffffffffffffffffffffffffffffffffffff16146111df57600080fd5b60008111611222576040517f08c379a000000000000000000000000000000000000000000000000000000000815260040161121990611d48565b60405180910390fd5b8060068190555050565b600b6020528160005260406000206020528060005260406000206000915091509054906101000a900460ff1681565b600080600260035461126d9190611b18565b6003548461127b9190611d68565b101561128a576000905061128f565b600190505b600081600354856112a09190611b18565b6112aa919061194f565b816112b5919061194f565b90508092505050919050565b60005b828110156113c75760006112f760086000600154815260200190815260200160002054836112f29190611aa7565b6113cc565b905082600c6000600154815260200190815260200160002060008373ffffffffffffffffffffffffffffffffffffffff1673ffffffffffffffffffffffffffffffffffffffff16815260200190815260200160002081905550600a819080600181540180825580915050600190039060005260206000200160009091909190916101000a81548173ffffffffffffffffffffffffffffffffffffffff021916908373ffffffffffffffffffffffffffffffffffffffff1602179055505080806113bf90611907565b9150506112c4565b505050565b600080600083905060005b60008103611500576000600980549050424433600980549050600554600a80549050896040516020016114109796959493929190611e02565b6040516020818303038152906040528051906020012060001c6114339190611d68565b90506009818154811061144957611448611bdb565b5b9060005260206000200160009054906101000a900473ffffffffffffffffffffffffffffffffffffffff1693506000600c6000600154815260200190815260200160002060008673ffffffffffffffffffffffffffffffffffffffff1673ffffffffffffffffffffffffffffffffffffffff1681526020019081526020016000205411156114f6576009805490506001846114e4919061194f565b6114ee9190611aa7565b9250506113d7565b60019150506113d7565b829350505050919050565b5080546000825590600052602060002090810190611529919061152c565b50565b5b8082111561154557600081600090555060010161152d565b5090565b600080fd5b600073ffffffffffffffffffffffffffffffffffffffff82169050919050565b60006115798261154e565b9050919050565b6115898161156e565b811461159457600080fd5b50565b6000813590506115a681611580565b92915050565b6000602082840312156115c2576115c1611549565b5b60006115d084828501611597565b91505092915050565b6000819050919050565b6115ec816115d9565b82525050565b600060208201905061160760008301846115e3565b92915050565b611616816115d9565b811461162157600080fd5b50565b6000813590506116338161160d565b92915050565b60006020828403121561164f5761164e611549565b5b600061165d84828501611624565b91505092915050565b6000806040838503121561167d5761167c611549565b5b600061168b85828601611624565b925050602061169c85828601611624565b9150509250929050565b6116af8161156e565b82525050565b60006020820190506116ca60008301846116a6565b92915050565b600081519050919050565b600082825260208201905092915050565b6000819050602082019050919050565b6117058161156e565b82525050565b600061171783836116fc565b60208301905092915050565b6000602082019050919050565b600061173b826116d0565b61174581856116db565b9350611750836116ec565b8060005b83811015611781578151611768888261170b565b975061177383611723565b925050600181019050611754565b5085935050505092915050565b600060208201905081810360008301526117a88184611730565b905092915050565b60008115159050919050565b6117c5816117b0565b82525050565b60006020820190506117e060008301846117bc565b92915050565b600081519050919050565b600082825260208201905092915050565b60005b83811015611820578082015181840152602081019050611805565b60008484015250505050565b6000601f19601f8301169050919050565b6000611848826117e6565b61185281856117f1565b9350611862818560208601611802565b61186b8161182c565b840191505092915050565b60006020820190508181036000830152611890818461183d565b905092915050565b600080604083850312156118af576118ae611549565b5b60006118bd85828601611624565b92505060206118ce85828601611597565b9150509250929050565b7f4e487b7100000000000000000000000000000000000000000000000000000000600052601160045260246000fd5b6000611912826115d9565b91507fffffffffffffffffffffffffffffffffffffffffffffffffffffffffffffffff8203611944576119436118d8565b5b600182019050919050565b600061195a826115d9565b9150611965836115d9565b925082820190508082111561197d5761197c6118d8565b5b92915050565b7f5469636b65742070726963652073686f756c64206265206d6f7265207468616e60008201527f2030000000000000000000000000000000000000000000000000000000000000602082015250565b60006119df6022836117f1565b91506119ea82611983565b604082019050919050565b60006020820190508181036000830152611a0e816119d2565b9050919050565b7f4c6f74746572792063616e277420626520656e6465643b2049742773206e6f7460008201527f2074696d65207965740000000000000000000000000000000000000000000000602082015250565b6000611a716029836117f1565b9150611a7c82611a15565b604082019050919050565b60006020820190508181036000830152611aa081611a64565b9050919050565b6000611ab2826115d9565b9150611abd836115d9565b9250828202611acb816115d9565b91508282048414831517611ae257611ae16118d8565b5b5092915050565b7f4e487b7100000000000000000000000000000000000000000000000000000000600052601260045260246000fd5b6000611b23826115d9565b9150611b2e836115d9565b925082611b3e57611b3d611ae9565b5b828204905092915050565b7f4e6f7420656e6f75676820706c617965727320746f2066696e697368206c6f7460008201527f7465727921000000000000000000000000000000000000000000000000000000602082015250565b6000611ba56025836117f1565b9150611bb082611b49565b604082019050919050565b60006020820190508181036000830152611bd481611b98565b9050919050565b7f4e487b7100000000000000000000000000000000000000000000000000000000600052603260045260246000fd5b7f4c6f747465727920636f756c646e7420626520656e646564207965742e204e6560008201527f6564206d6f726520706c61796572732e00000000000000000000000000000000602082015250565b6000611c666030836117f1565b9150611c7182611c0a565b604082019050919050565b60006020820190508181036000830152611c9581611c59565b9050919050565b7f4e487b7100000000000000000000000000000000000000000000000000000000600052602260045260246000fd5b60006002820490506001821680611ce357607f821691505b602082108103611cf657611cf5611c9c565b5b50919050565b7f4475726174696f6e2073686f756c64206265206d6f7265207468616e20300000600082015250565b6000611d32601e836117f1565b9150611d3d82611cfc565b602082019050919050565b60006020820190508181036000830152611d6181611d25565b9050919050565b6000611d73826115d9565b9150611d7e836115d9565b925082611d8e57611d8d611ae9565b5b828206905092915050565b6000819050919050565b611db4611daf826115d9565b611d99565b82525050565b60008160601b9050919050565b6000611dd282611dba565b9050919050565b6000611de482611dc7565b9050919050565b611dfc611df78261156e565b611dd9565b82525050565b6000611e0e828a611da3565b602082019150611e1e8289611da3565b602082019150611e2e8288611deb565b601482019150611e3e8287611da3565b602082019150611e4e8286611da3565b602082019150611e5e8285611da3565b602082019150611e6e8284611da3565b6020820191508190509897505050505050505056fea2646970667358221220f3abf1d66031b815d23d37b0f5886f4158fb9a3a4a72112285f6dcfb2df6880264736f6c63430008110033",
  "linkReferences": {},
  "deployedLinkReferences": {}
}