{
  "_format": "hh-sol-artifact-1",
  "contractName": "Manager",
  "sourceName": "contracts/manager.sol",
  "abi": [
    {
      "inputs": [
        {
          "internalType": "address",
          "name": "usdtcontract",
          "type": "address"
        }
      ],
      "stateMutability": "nonpayable",
      "type": "constructor"
    },
    {
      "anonymous": false,
      "inputs": [
        {
          "indexed": true,
          "internalType": "address",
          "name": "previousOwner",
          "type": "address"
        },
        {
          "indexed": true,
          "internalType": "address",
          "name": "newOwner",
          "type": "address"
        }
      ],
      "name": "OwnershipTransferred",
      "type": "event"
    },
    {
      "inputs": [
        {
          "internalType": "string",
          "name": "title",
          "type": "string"
        },
        {
          "internalType": "address",
          "name": "contractAddress",
          "type": "address"
        }
      ],
      "name": "addLotteryInstance",
      "outputs": [],
      "stateMutability": "nonpayable",
      "type": "function"
    },
    {
      "inputs": [
        {
          "internalType": "uint256",
          "name": "instanceID",
          "type": "uint256"
        }
      ],
      "name": "getCurrentLotteryForInstance",
      "outputs": [
        {
          "internalType": "uint256",
          "name": "",
          "type": "uint256"
        }
      ],
      "stateMutability": "view",
      "type": "function"
    },
    {
      "inputs": [],
      "name": "getLotteryInstances",
      "outputs": [
        {
          "internalType": "uint256[]",
          "name": "list",
          "type": "uint256[]"
        }
      ],
      "stateMutability": "view",
      "type": "function"
    },
    {
      "inputs": [
        {
          "internalType": "uint256",
          "name": "instanceID",
          "type": "uint256"
        }
      ],
      "name": "getaTicket",
      "outputs": [],
      "stateMutability": "nonpayable",
      "type": "function"
    },
    {
      "inputs": [
        {
          "internalType": "uint256",
          "name": "",
          "type": "uint256"
        }
      ],
      "name": "lotteries",
      "outputs": [
        {
          "internalType": "uint256",
          "name": "",
          "type": "uint256"
        }
      ],
      "stateMutability": "view",
      "type": "function"
    },
    {
      "inputs": [
        {
          "internalType": "uint256",
          "name": "",
          "type": "uint256"
        }
      ],
      "name": "lotteryContracts",
      "outputs": [
        {
          "internalType": "address",
          "name": "",
          "type": "address"
        }
      ],
      "stateMutability": "view",
      "type": "function"
    },
    {
      "inputs": [
        {
          "internalType": "uint256",
          "name": "",
          "type": "uint256"
        }
      ],
      "name": "lotteryIndexes",
      "outputs": [
        {
          "internalType": "uint256",
          "name": "",
          "type": "uint256"
        }
      ],
      "stateMutability": "view",
      "type": "function"
    },
    {
      "inputs": [
        {
          "internalType": "uint256",
          "name": "",
          "type": "uint256"
        }
      ],
      "name": "lotteryTitles",
      "outputs": [
        {
          "internalType": "string",
          "name": "",
          "type": "string"
        }
      ],
      "stateMutability": "view",
      "type": "function"
    },
    {
      "inputs": [],
      "name": "owner",
      "outputs": [
        {
          "internalType": "address",
          "name": "",
          "type": "address"
        }
      ],
      "stateMutability": "view",
      "type": "function"
    },
    {
      "inputs": [
        {
          "internalType": "uint256",
          "name": "instanceID",
          "type": "uint256"
        }
      ],
      "name": "processLotteryToNext",
      "outputs": [],
      "stateMutability": "nonpayable",
      "type": "function"
    },
    {
      "inputs": [
        {
          "internalType": "uint256",
          "name": "instanceID",
          "type": "uint256"
        }
      ],
      "name": "removeLotteryInstance",
      "outputs": [],
      "stateMutability": "nonpayable",
      "type": "function"
    },
    {
      "inputs": [],
      "name": "renounceOwnership",
      "outputs": [],
      "stateMutability": "nonpayable",
      "type": "function"
    },
    {
      "inputs": [
        {
          "internalType": "uint256",
          "name": "instanceID",
          "type": "uint256"
        },
        {
          "internalType": "uint256",
          "name": "blockLen",
          "type": "uint256"
        }
      ],
      "name": "setDuration",
      "outputs": [],
      "stateMutability": "nonpayable",
      "type": "function"
    },
    {
      "inputs": [
        {
          "internalType": "uint256",
          "name": "instanceID",
          "type": "uint256"
        },
        {
          "internalType": "uint256",
          "name": "price",
          "type": "uint256"
        }
      ],
      "name": "setTicketPrice",
      "outputs": [],
      "stateMutability": "nonpayable",
      "type": "function"
    },
    {
      "inputs": [
        {
          "internalType": "uint256",
          "name": "instanceID",
          "type": "uint256"
        }
      ],
      "name": "spawnNewLottery",
      "outputs": [],
      "stateMutability": "nonpayable",
      "type": "function"
    },
    {
      "inputs": [
        {
          "internalType": "address",
          "name": "newOwner",
          "type": "address"
        }
      ],
      "name": "transferOwnership",
      "outputs": [],
      "stateMutability": "nonpayable",
      "type": "function"
    }
  ],
  "bytecode": "0x6080604052600180553480156200001557600080fd5b50604051620025f2380380620025f283398181016040528101906200003b9190620001d9565b6200005b6200004f620000a360201b60201c565b620000ab60201b60201c565b80600660006101000a81548173ffffffffffffffffffffffffffffffffffffffff021916908373ffffffffffffffffffffffffffffffffffffffff160217905550506200020b565b600033905090565b60008060009054906101000a900473ffffffffffffffffffffffffffffffffffffffff169050816000806101000a81548173ffffffffffffffffffffffffffffffffffffffff021916908373ffffffffffffffffffffffffffffffffffffffff1602179055508173ffffffffffffffffffffffffffffffffffffffff168173ffffffffffffffffffffffffffffffffffffffff167f8be0079c531659141344cd1fd0a4f28419497f9722a3daafe3b4186f6b6457e060405160405180910390a35050565b600080fd5b600073ffffffffffffffffffffffffffffffffffffffff82169050919050565b6000620001a18262000174565b9050919050565b620001b38162000194565b8114620001bf57600080fd5b50565b600081519050620001d381620001a8565b92915050565b600060208284031215620001f257620001f16200016f565b5b60006200020284828501620001c2565b91505092915050565b6123d7806200021b6000396000f3fe608060405234801561001057600080fd5b50600436106101005760003560e01c806383f7c8ff11610097578063bddb2b7d11610066578063bddb2b7d14610297578063c8cb4359146102b3578063cd7ea095146102e3578063f2fde38b146102ff57610100565b806383f7c8ff146102115780638da5cb5b1461022d578063a7522ace1461024b578063aa4c4cc11461027b57610100565b806341f8013f116100d357806341f8013f1461019f578063698932c8146101cf5780636eb33437146101eb578063715018a61461020757610100565b80631398e076146101055780633a48070a146101355780633bf32575146101515780634047c80f14610181575b600080fd5b61011f600480360381019061011a91906116b2565b61031b565b60405161012c91906116ee565b60405180910390f35b61014f600480360381019061014a91906116b2565b61033f565b005b61016b600480360381019061016691906116b2565b610435565b60405161017891906116ee565b60405180910390f35b610189610538565b60405161019691906117c7565b60405180910390f35b6101b960048036038101906101b491906116b2565b610590565b6040516101c69190611879565b60405180910390f35b6101e960048036038101906101e491906116b2565b610630565b005b61020560048036038101906102009190611a2e565b61072a565b005b61020f610815565b005b61022b600480360381019061022691906116b2565b610829565b005b610235610e2c565b6040516102429190611a99565b60405180910390f35b610265600480360381019061026091906116b2565b610e55565b6040516102729190611a99565b60405180910390f35b61029560048036038101906102909190611ab4565b610e88565b005b6102b160048036038101906102ac91906116b2565b610f90565b005b6102cd60048036038101906102c891906116b2565b6112b6565b6040516102da91906116ee565b60405180910390f35b6102fd60048036038101906102f89190611ab4565b6112ce565b005b61031960048036038101906103149190611af4565b6113d6565b005b6002818154811061032b57600080fd5b906000526020600020016000915090505481565b610347611459565b80600060036000838152602001908152602001600020541161039e576040517f08c379a000000000000000000000000000000000000000000000000000000000815260040161039590611b6d565b60405180910390fd5b6005600083815260200190815260200160002060009054906101000a900473ffffffffffffffffffffffffffffffffffffffff1673ffffffffffffffffffffffffffffffffffffffff1663077989546040518163ffffffff1660e01b8152600401600060405180830381600087803b15801561041957600080fd5b505af115801561042d573d6000803e3d6000fd5b505050505050565b600081600060036000838152602001908152602001600020541161048e576040517f08c379a000000000000000000000000000000000000000000000000000000000815260040161048590611b6d565b60405180910390fd5b6005600084815260200190815260200160002060009054906101000a900473ffffffffffffffffffffffffffffffffffffffff1673ffffffffffffffffffffffffffffffffffffffff166338b014ca6040518163ffffffff1660e01b8152600401602060405180830381865afa15801561050c573d6000803e3d6000fd5b505050506040513d601f19601f820116820180604052508101906105309190611ba2565b915050919050565b6060600280548060200260200160405190810160405280929190818152602001828054801561058657602002820191906000526020600020905b815481526020019060010190808311610572575b5050505050905090565b600460205280600052604060002060009150905080546105af90611bfe565b80601f01602080910402602001604051908101604052809291908181526020018280546105db90611bfe565b80156106285780601f106105fd57610100808354040283529160200191610628565b820191906000526020600020905b81548152906001019060200180831161060b57829003601f168201915b505050505081565b610638611459565b80600060036000838152602001908152602001600020541161068f576040517f08c379a000000000000000000000000000000000000000000000000000000000815260040161068690611b6d565b60405180910390fd5b60006003600084815260200190815260200160002054116106e5576040517f08c379a00000000000000000000000000000000000000000000000000000000081526004016106dc90611c7b565b60405180910390fd5b6002600160036000858152602001908152602001600020546107079190611cca565b8154811061071857610717611cfe565b5b90600052602060002001600090555050565b610732611459565b60026001549080600181540180825580915050600190039060005260206000200160009091909190915055600060028054905090508260046000600154815260200190815260200160002090816107899190611ed9565b508160056000600154815260200190815260200160002060006101000a81548173ffffffffffffffffffffffffffffffffffffffff021916908373ffffffffffffffffffffffffffffffffffffffff16021790555080600360006001548152602001908152602001600020819055506001600081548092919061080b90611fab565b9190505550505050565b61081d611459565b61082760006114d7565b565b610831611459565b806000600360008381526020019081526020016000205411610888576040517f08c379a000000000000000000000000000000000000000000000000000000000815260040161087f90611b6d565b60405180910390fd5b60006005600084815260200190815260200160002060009054906101000a900473ffffffffffffffffffffffffffffffffffffffff16905061096d6040518060400160405280600a81526020017f7072697a65706f6f6c3a000000000000000000000000000000000000000000008152508273ffffffffffffffffffffffffffffffffffffffff1663719ce73e6040518163ffffffff1660e01b8152600401602060405180830381865afa158015610944573d6000803e3d6000fd5b505050506040513d601f19601f820116820180604052508101906109689190611ba2565b61159b565b8073ffffffffffffffffffffffffffffffffffffffff16632c906ba26040518163ffffffff1660e01b8152600401600060405180830381600087803b1580156109b557600080fd5b505af11580156109c9573d6000803e3d6000fd5b5050505060008173ffffffffffffffffffffffffffffffffffffffff1663a54f35e26040518163ffffffff1660e01b8152600401600060405180830381865afa158015610a1a573d6000803e3d6000fd5b505050506040513d6000823e3d601f19601f82011682018060405250810190610a4391906120d0565b9050610b886040518060400160405280600981526020017f77696e6e696e67733a00000000000000000000000000000000000000000000008152508373ffffffffffffffffffffffffffffffffffffffff1663a5f178e38573ffffffffffffffffffffffffffffffffffffffff166338b014ca6040518163ffffffff1660e01b8152600401602060405180830381865afa158015610ae5573d6000803e3d6000fd5b505050506040513d601f19601f82011682018060405250810190610b099190611ba2565b85600081518110610b1d57610b1c611cfe565b5b60200260200101516040518363ffffffff1660e01b8152600401610b42929190612119565b602060405180830381865afa158015610b5f573d6000803e3d6000fd5b505050506040513d601f19601f82011682018060405250810190610b839190611ba2565b61159b565b60005b8151811015610d6557600660009054906101000a900473ffffffffffffffffffffffffffffffffffffffff1673ffffffffffffffffffffffffffffffffffffffff1663a9059cbb838381518110610be557610be4611cfe565b5b60200260200101518573ffffffffffffffffffffffffffffffffffffffff1663a5f178e38773ffffffffffffffffffffffffffffffffffffffff166338b014ca6040518163ffffffff1660e01b8152600401602060405180830381865afa158015610c54573d6000803e3d6000fd5b505050506040513d601f19601f82011682018060405250810190610c789190611ba2565b878781518110610c8b57610c8a611cfe565b5b60200260200101516040518363ffffffff1660e01b8152600401610cb0929190612119565b602060405180830381865afa158015610ccd573d6000803e3d6000fd5b505050506040513d601f19601f82011682018060405250810190610cf19190611ba2565b6040518363ffffffff1660e01b8152600401610d0e929190612142565b6020604051808303816000875af1158015610d2d573d6000803e3d6000fd5b505050506040513d601f19601f82011682018060405250810190610d5191906121a3565b508080610d5d90611fab565b915050610b8b565b508173ffffffffffffffffffffffffffffffffffffffff1663a0a773c56040518163ffffffff1660e01b8152600401600060405180830381600087803b158015610dae57600080fd5b505af1158015610dc2573d6000803e3d6000fd5b505050508173ffffffffffffffffffffffffffffffffffffffff1663077989546040518163ffffffff1660e01b8152600401600060405180830381600087803b158015610e0e57600080fd5b505af1158015610e22573d6000803e3d6000fd5b5050505050505050565b60008060009054906101000a900473ffffffffffffffffffffffffffffffffffffffff16905090565b60056020528060005260406000206000915054906101000a900473ffffffffffffffffffffffffffffffffffffffff1681565b610e90611459565b816000600360008381526020019081526020016000205411610ee7576040517f08c379a0000000000000000000000000000000000000000000000000000000008152600401610ede90611b6d565b60405180910390fd5b60006005600085815260200190815260200160002060009054906101000a900473ffffffffffffffffffffffffffffffffffffffff1690508073ffffffffffffffffffffffffffffffffffffffff166315981650846040518263ffffffff1660e01b8152600401610f5891906116ee565b600060405180830381600087803b158015610f7257600080fd5b505af1158015610f86573d6000803e3d6000fd5b5050505050505050565b806000600360008381526020019081526020016000205411610fe7576040517f08c379a0000000000000000000000000000000000000000000000000000000008152600401610fde90611b6d565b60405180910390fd5b600060036000848152602001908152602001600020541161103d576040517f08c379a000000000000000000000000000000000000000000000000000000000815260040161103490611c7b565b60405180910390fd5b60006005600084815260200190815260200160002060009054906101000a900473ffffffffffffffffffffffffffffffffffffffff169050600015158173ffffffffffffffffffffffffffffffffffffffff1663e2a41283336040518263ffffffff1660e01b81526004016110b29190611a99565b602060405180830381865afa1580156110cf573d6000803e3d6000fd5b505050506040513d601f19601f820116820180604052508101906110f391906121a3565b151514611135576040517f08c379a000000000000000000000000000000000000000000000000000000000815260040161112c9061221c565b60405180910390fd5b600660009054906101000a900473ffffffffffffffffffffffffffffffffffffffff1673ffffffffffffffffffffffffffffffffffffffff166323b872dd33308473ffffffffffffffffffffffffffffffffffffffff16631209b1f66040518163ffffffff1660e01b8152600401602060405180830381865afa1580156111c0573d6000803e3d6000fd5b505050506040513d601f19601f820116820180604052508101906111e49190611ba2565b6040518463ffffffff1660e01b81526004016112029392919061223c565b6020604051808303816000875af1158015611221573d6000803e3d6000fd5b505050506040513d601f19601f8201168201806040525081019061124591906121a3565b508073ffffffffffffffffffffffffffffffffffffffff16630b38e19b336040518263ffffffff1660e01b815260040161127f9190611a99565b600060405180830381600087803b15801561129957600080fd5b505af11580156112ad573d6000803e3d6000fd5b50505050505050565b60036020528060005260406000206000915090505481565b6112d6611459565b81600060036000838152602001908152602001600020541161132d576040517f08c379a000000000000000000000000000000000000000000000000000000000815260040161132490611b6d565b60405180910390fd5b60006005600085815260200190815260200160002060009054906101000a900473ffffffffffffffffffffffffffffffffffffffff1690508073ffffffffffffffffffffffffffffffffffffffff1663f6be71d1846040518263ffffffff1660e01b815260040161139e91906116ee565b600060405180830381600087803b1580156113b857600080fd5b505af11580156113cc573d6000803e3d6000fd5b5050505050505050565b6113de611459565b600073ffffffffffffffffffffffffffffffffffffffff168173ffffffffffffffffffffffffffffffffffffffff160361144d576040517f08c379a0000000000000000000000000000000000000000000000000000000008152600401611444906122e5565b60405180910390fd5b611456816114d7565b50565b611461611637565b73ffffffffffffffffffffffffffffffffffffffff1661147f610e2c565b73ffffffffffffffffffffffffffffffffffffffff16146114d5576040517f08c379a00000000000000000000000000000000000000000000000000000000081526004016114cc90612351565b60405180910390fd5b565b60008060009054906101000a900473ffffffffffffffffffffffffffffffffffffffff169050816000806101000a81548173ffffffffffffffffffffffffffffffffffffffff021916908373ffffffffffffffffffffffffffffffffffffffff1602179055508173ffffffffffffffffffffffffffffffffffffffff168173ffffffffffffffffffffffffffffffffffffffff167f8be0079c531659141344cd1fd0a4f28419497f9722a3daafe3b4186f6b6457e060405160405180910390a35050565b61163382826040516024016115b1929190612371565b6040516020818303038152906040527fb60e72cc000000000000000000000000000000000000000000000000000000007bffffffffffffffffffffffffffffffffffffffffffffffffffffffff19166020820180517bffffffffffffffffffffffffffffffffffffffffffffffffffffffff838183161783525050505061163f565b5050565b600033905090565b60008151905060006a636f6e736f6c652e6c6f679050602083016000808483855afa5050505050565b6000604051905090565b600080fd5b600080fd5b6000819050919050565b61168f8161167c565b811461169a57600080fd5b50565b6000813590506116ac81611686565b92915050565b6000602082840312156116c8576116c7611672565b5b60006116d68482850161169d565b91505092915050565b6116e88161167c565b82525050565b600060208201905061170360008301846116df565b92915050565b600081519050919050565b600082825260208201905092915050565b6000819050602082019050919050565b61173e8161167c565b82525050565b60006117508383611735565b60208301905092915050565b6000602082019050919050565b600061177482611709565b61177e8185611714565b935061178983611725565b8060005b838110156117ba5781516117a18882611744565b97506117ac8361175c565b92505060018101905061178d565b5085935050505092915050565b600060208201905081810360008301526117e18184611769565b905092915050565b600081519050919050565b600082825260208201905092915050565b60005b83811015611823578082015181840152602081019050611808565b60008484015250505050565b6000601f19601f8301169050919050565b600061184b826117e9565b61185581856117f4565b9350611865818560208601611805565b61186e8161182f565b840191505092915050565b600060208201905081810360008301526118938184611840565b905092915050565b600080fd5b600080fd5b7f4e487b7100000000000000000000000000000000000000000000000000000000600052604160045260246000fd5b6118dd8261182f565b810181811067ffffffffffffffff821117156118fc576118fb6118a5565b5b80604052505050565b600061190f611668565b905061191b82826118d4565b919050565b600067ffffffffffffffff82111561193b5761193a6118a5565b5b6119448261182f565b9050602081019050919050565b82818337600083830152505050565b600061197361196e84611920565b611905565b90508281526020810184848401111561198f5761198e6118a0565b5b61199a848285611951565b509392505050565b600082601f8301126119b7576119b661189b565b5b81356119c7848260208601611960565b91505092915050565b600073ffffffffffffffffffffffffffffffffffffffff82169050919050565b60006119fb826119d0565b9050919050565b611a0b816119f0565b8114611a1657600080fd5b50565b600081359050611a2881611a02565b92915050565b60008060408385031215611a4557611a44611672565b5b600083013567ffffffffffffffff811115611a6357611a62611677565b5b611a6f858286016119a2565b9250506020611a8085828601611a19565b9150509250929050565b611a93816119f0565b82525050565b6000602082019050611aae6000830184611a8a565b92915050565b60008060408385031215611acb57611aca611672565b5b6000611ad98582860161169d565b9250506020611aea8582860161169d565b9150509250929050565b600060208284031215611b0a57611b09611672565b5b6000611b1884828501611a19565b91505092915050565b7f496e76616c696420696e7374616e636520494400000000000000000000000000600082015250565b6000611b576013836117f4565b9150611b6282611b21565b602082019050919050565b60006020820190508181036000830152611b8681611b4a565b9050919050565b600081519050611b9c81611686565b92915050565b600060208284031215611bb857611bb7611672565b5b6000611bc684828501611b8d565b91505092915050565b7f4e487b7100000000000000000000000000000000000000000000000000000000600052602260045260246000fd5b60006002820490506001821680611c1657607f821691505b602082108103611c2957611c28611bcf565b5b50919050565b7f4c6f7474657279206e6f7420666f756e64210000000000000000000000000000600082015250565b6000611c656012836117f4565b9150611c7082611c2f565b602082019050919050565b60006020820190508181036000830152611c9481611c58565b9050919050565b7f4e487b7100000000000000000000000000000000000000000000000000000000600052601160045260246000fd5b6000611cd58261167c565b9150611ce08361167c565b9250828203905081811115611cf857611cf7611c9b565b5b92915050565b7f4e487b7100000000000000000000000000000000000000000000000000000000600052603260045260246000fd5b60008190508160005260206000209050919050565b60006020601f8301049050919050565b600082821b905092915050565b600060088302611d8f7fffffffffffffffffffffffffffffffffffffffffffffffffffffffffffffffff82611d52565b611d998683611d52565b95508019841693508086168417925050509392505050565b6000819050919050565b6000611dd6611dd1611dcc8461167c565b611db1565b61167c565b9050919050565b6000819050919050565b611df083611dbb565b611e04611dfc82611ddd565b848454611d5f565b825550505050565b600090565b611e19611e0c565b611e24818484611de7565b505050565b5b81811015611e4857611e3d600082611e11565b600181019050611e2a565b5050565b601f821115611e8d57611e5e81611d2d565b611e6784611d42565b81016020851015611e76578190505b611e8a611e8285611d42565b830182611e29565b50505b505050565b600082821c905092915050565b6000611eb060001984600802611e92565b1980831691505092915050565b6000611ec98383611e9f565b9150826002028217905092915050565b611ee2826117e9565b67ffffffffffffffff811115611efb57611efa6118a5565b5b611f058254611bfe565b611f10828285611e4c565b600060209050601f831160018114611f435760008415611f31578287015190505b611f3b8582611ebd565b865550611fa3565b601f198416611f5186611d2d565b60005b82811015611f7957848901518255600182019150602085019450602081019050611f54565b86831015611f965784890151611f92601f891682611e9f565b8355505b6001600288020188555050505b505050505050565b6000611fb68261167c565b91507fffffffffffffffffffffffffffffffffffffffffffffffffffffffffffffffff8203611fe857611fe7611c9b565b5b600182019050919050565b600067ffffffffffffffff82111561200e5761200d6118a5565b5b602082029050602081019050919050565b600080fd5b60008151905061203381611a02565b92915050565b600061204c61204784611ff3565b611905565b9050808382526020820190506020840283018581111561206f5761206e61201f565b5b835b8181101561209857806120848882612024565b845260208401935050602081019050612071565b5050509392505050565b600082601f8301126120b7576120b661189b565b5b81516120c7848260208601612039565b91505092915050565b6000602082840312156120e6576120e5611672565b5b600082015167ffffffffffffffff81111561210457612103611677565b5b612110848285016120a2565b91505092915050565b600060408201905061212e60008301856116df565b61213b6020830184611a8a565b9392505050565b60006040820190506121576000830185611a8a565b61216460208301846116df565b9392505050565b60008115159050919050565b6121808161216b565b811461218b57600080fd5b50565b60008151905061219d81612177565b92915050565b6000602082840312156121b9576121b8611672565b5b60006121c78482850161218e565b91505092915050565b7f506c6179657220616c7265616479207265676973746572656421000000000000600082015250565b6000612206601a836117f4565b9150612211826121d0565b602082019050919050565b60006020820190508181036000830152612235816121f9565b9050919050565b60006060820190506122516000830186611a8a565b61225e6020830185611a8a565b61226b60408301846116df565b949350505050565b7f4f776e61626c653a206e6577206f776e657220697320746865207a65726f206160008201527f6464726573730000000000000000000000000000000000000000000000000000602082015250565b60006122cf6026836117f4565b91506122da82612273565b604082019050919050565b600060208201905081810360008301526122fe816122c2565b9050919050565b7f4f776e61626c653a2063616c6c6572206973206e6f7420746865206f776e6572600082015250565b600061233b6020836117f4565b915061234682612305565b602082019050919050565b6000602082019050818103600083015261236a8161232e565b9050919050565b6000604082019050818103600083015261238b8185611840565b905061239a60208301846116df565b939250505056fea26469706673582212208952179b25962f16b2a92703d705182ef48ccf08a94e4b5d0e8b063e3d23433a64736f6c63430008110033",
  "linkReferences": {},
  "deployedLinkReferences": {}
}